:040000009FEF03F07B
:100600000000000E946E800E826E000E026E000ED0
:10061000016E014A022A610E015CEA0E0258D8A05E
:1006200014EF03F016EF03F009EF03F0400E826EB3
:10063000000E046E000E036E034A042A610E035C72
:10064000EA0E0458D8A027EF03F029EF03F01CEFBF
:1006500003F0200E826E000E066E000E056E054A37
:10066000062A610E055CEA0E0658D8A03AEF03F0A0
:100670003CEF03F02FEF03F0100E826E000E086EB9
:10068000000E076E074A082A610E075CEA0E08583A
:10069000D8A04DEF03F04FEF03F042EF03F0080E48
:1006A000826E000E0A6E000E096E094A0A2A610E59
:1006B000095CEA0E0A58D8A060EF03F062EF03F07D
:1006C00055EF03F0040E826E000E0C6E000E0B6EE2
:1006D0000B4A0C2A610E0B5CEA0E0C58D8A073EF83
:1006E00003F075EF03F068EF03F0020E826E000E68
:1006F0000E6E000E0D6E0D4A0E2A610E0D5CEA0E96
:100700000E58D8A086EF03F088EF03F07BEF03F0DC
:10071000010E826E000E106E000E0F6E0F4A102A30
:10072000610E0F5CEA0E1058D8A099EF03F09BEF12
:1007300003F08EEF03F003EF03F000EF00F0000191
:0407400001EF03F0D2
:00000001FF
