:04000000E0EF03F03A
:1006000000009468000E956E82A009EF03F00BEFD6
:1006100003F00EEF03F0836810EF03F0000E836E1B
:1006200082A215EF03F017EF03F041EF03F0000E85
:100630000E6E010E0D6E0DC083FF000E0A6E000ED1
:10064000096E094A0A2AD80E095CD60E0A58D8A0A3
:100650002CEF03F02EEF03F021EF03F0D8900D34D0
:100660000D6E0E340E6E0EBE3FEF03F00E5009E11C
:10067000810E0D5CD8A03FEF03F041EF03F01BEFBC
:1006800003F082A446EF03F048EF03F004EF03F019
:10069000000E106E800E0F6E0FC083FF000E0C6EEA
:1006A000000E0B6E0B4A0C2AD80E0B5CD60E0C58A3
:1006B000D8A05DEF03F05FEF03F052EF03F00FC03F
:1006C00001F010C002F0000E046E020E036E7EEC0C
:1006D00003F001C00FF002C010F010BE7AEF03F07B
:1006E000105006E10F04D8B078EF03F07AEF03F072
:1006F0004CEF03F004EF03F000EF00F0000E066E85
:1007000004BE87EF03F085EF03F08DEF03F0036C79
:10071000041ED8B0042A010E066E02BE94EF03F048
:1007200092EF03F09AEF03F0016C021ED8B0022A98
:10073000010E061A000E086E000E076E035004101C
:10074000D8B4A5EF03F0A7EF03F0CFEF03F0010E4D
:10075000056EAFEF03F0D89003360436052A04AED9
:10076000B4EF03F0B6EF03F0ABEF03F0D890073629
:1007700008360350015C04500258D8A0C2EF03F0C1
:10078000C4EF03F0C9EF03F00350015E0450025AB6
:100790000780D89004320332052EB6EF03F00650DE
:1007A000D8B4D5EF03F0D7EF03F0DBEF03F0076C1D
:1007B000081ED8B0082A07C001F008C002F01200D5
:0607C000000101EF03F04F
:00000001FF
