:0400000085EF03F095
:100600000000010E946E000E956E0568066882A0CB
:100610000CEF03F00EEF03F023EF03F0020E0518CA
:100620000610D8A416EF03F018EF03F01AEF03F04A
:1006300005680668054A062A82B021EF03F023EF19
:1006400003F01CEF03F005500610D8A42AEF03F0C6
:100650002CEF03F030EF03F0010E836E07EF03F091
:1006600005040610D8A437EF03F039EF03F03DEF8F
:1006700003F0000E836E07EF03F0020E051806105C
:10068000D8A445EF03F047EF03F007EF03F0010EA6
:10069000836E000E026E000E016E51EF03F0014AF0
:1006A000022AE90E015CFD0E0258D8B05AEF03F0A1
:1006B0005CEF03F063EF03F082A061EF03F063EF00
:1006C00003F04FEF03F0000E836E000E046E000E79
:1006D000036E6DEF03F0034A042AE90E035CFD0E7E
:1006E0000458D8B076EF03F078EF03F081EF03F011
:1006F00082A07DEF03F07FEF03F06BEF03F007EFD5
:1007000003F007EF03F000EF00F0000101EF03F04A
:00000001FF
