:0400000047EF04F0D2
:1006000000414E5449434C4F434B574953450053C7
:05061000544F500000F2
:10061600300E946E000E956E000E936E010E01EC78
:1006260004F00F0E01EC04F00768086809680A6810
:1006360082A820EF03F022EF03F074EF03F0020E1E
:1006460007180810D8A42AEF03F02CEF03F02EEFBA
:1006560003F007680868074A082A82B835EF03F0EE
:1006660037EF03F030EF03F0010E01EC04F0380E23
:1006760001EC04F01C0E01EC04F007500810D8A49D
:1006860047EF03F049EF03F051EF03F0010E816EDF
:10069600050E066E31EC04F074EF03F00704081043
:1006A600D8A458EF03F05AEF03F062EF03F0020EFE
:1006B600816E010E066E31EC04F074EF03F0020E4B
:1006C60007180810D8A46AEF03F06CEF03F074EF74
:1006D60003F0030E816E0F0E066E31EC04F074EF1C
:1006E60003F082AA79EF03F07BEF03F01BEF03F030
:1006F600020E09180A10D8A483EF03F085EF03F061
:1007060087EF03F009680A68094A0A2A82BA8EEF57
:1007160003F090EF03F089EF03F0010E01EC04F013
:10072600380E01EC04F0C10E01EC04F009500A1079
:10073600D8A4A0EF03F0A2EF03F0AAEF03F0040E93
:10074600816E050E066E31EC04F01BEF03F0090412
:100756000A10D8A4B1EF03F0B3EF03F0BBEF03F038
:10076600080E816E010E066E31EC04F01BEF03F0ED
:10077600020E09180A10D8A4C3EF03F0C5EF03F060
:10078600CDEF03F0600E816E0F0E066E31EC04F0B5
:100796001BEF03F01BEF03F000EF00F0016E828009
:1007A600829201C083FF8284000E036E000E026EE9
:1007B600024A032A03BEE9EF03F0035009E1650E7E
:1007C600025CD8A0E9EF03F0EBEF03F0DBEF03F0F8
:1007D6008294000E056E000E046E044A052A05BEBC
:1007E600FEEF03F0890E045C130E0558D8A0FEEF49
:1007F60003F000EF04F0F0EF03F01200016E8290B8
:10080600829201C083FF8284000E036E000E026E88
:10081600024A032A03BE19EF04F0035009E1650EEC
:10082600025CD8A019EF04F01BEF04F00BEF04F004
:100836008294000E056E000E046E044A052A05BE5B
:100846002EEF04F0890E045C130E0558D8A02EEF87
:1008560004F030EF04F020EF04F012003AEF04F059
:1008660006C0F6FF0800F550D1EC03F0062A06C0D4
:10087600F6FF0800F5500009D8A444EF04F046EF4F
:1008860004F033EF04F01200000EF86E060EF76E59
:0608960000010BEF03F06E
:00000001FF
