:04000000C9EF03F051
:0906000000444556494B4100003D
:10060A00000E946E000E956E0F0E83EC03F00C0E26
:10061A0083EC03F08F0E83EC03F0010E066EB3EC4D
:10062A0003F0000E0C6E000E0B6E180E83EC03F036
:10063A00000E076E000E086E000E096E000E0A6E9E
:10064A00010E0726000E082209220A220ABE3AEFE4
:10065A0003F00A5009100BE1510E075CC30E08584B
:10066A00D8A03AEF03F03CEF03F025EF03F00B4A72
:10067A000C2A0CBE4AEF03F00C5009E1150E0B5C74
:10068A00D8A04AEF03F04CEF03F01AEF03F0020E82
:10069A0083EC03F016EF03F000EF00F0016E8280A6
:1006AA00829201C083FF8284000E036E000E026EE6
:1006BA00024A032A03BE6BEF03F0035009E1650EF9
:1006CA00025CD8A06BEF03F06DEF03F05DEF03F06F
:1006DA008294000E056E000E046E044A052A05BEB9
:1006EA0080EF03F0890E045C130E0558D8A080EF42
:1006FA0003F082EF03F072EF03F01200016E8290B2
:10070A00829201C083FF8284000E036E000E026E85
:10071A00024A032A03BE9BEF03F0035009E1650E68
:10072A00025CD8A09BEF03F09DEF03F08DEF03F07E
:10073A008294000E056E000E046E044A052A05BE58
:10074A00B0EF03F0890E045C130E0558D8A0B0EF81
:10075A0003F0B2EF03F0A2EF03F01200BCEF03F0D4
:10076A0006C0F6FF0800F55053EC03F0062A06C04F
:10077A00F6FF0800F5500009D8A4C6EF03F0C8EF49
:10078A0003F0B5EF03F01200000EF86E060EF76ED6
:06079A00000105EF03F071
:00000001FF
