:040000003CEF03F0DE
:100600000000000E946E000E066E000E056E06BE13
:1006100013EF03F0065009E1090E055CD8A013EFB3
:1006200003F015EF03F017EF03F003EF03F005C03D
:1006300001F0010E026E012A20EF03F0D89002367D
:10064000012E1EEF03F00250826E000E046E000EAB
:10065000036E034A042AE80E035CFD0E0458D8A07A
:1006600034EF03F036EF03F029EF03F0054A062AD2
:0E06700007EF03F000EF00F0000101EF03F0D0
:00000001FF
