:040000008CEF03F08E
:100600000068656C6C6F0000016E8280829201C090
:1006100083FF8284000E036E000E026E024A032ADC
:1006200003BE1CEF03F0035009E1650E025CD8A085
:100630001CEF03F01EEF03F00EEF03F08294000EA8
:10064000056E000E046E044A052A05BE31EF03F064
:10065000890E045C130E0558D8A031EF03F033EF78
:1006600003F023EF03F01200016E8290829201C02A
:1006700083FF8284000E036E000E026E024A032A7C
:1006800003BE4CEF03F0035009E1650E025CD8A0F5
:100690004CEF03F04EEF03F03EEF03F08294000EB8
:1006A000056E000E046E044A052A05BE61EF03F0D4
:1006B000890E045C130E0558D8A061EF03F063EFB8
:1006C00003F053EF03F012006DEF03F006C0F6FFE6
:1006D0000800F55004EC03F0062A06C0F6FF0800F7
:1006E000F5500009D8A477EF03F079EF03F066EF37
:1006F00003F01200000E946E000E956E010E34ECA5
:1007000003F00F0E34EC03F0010E066E64EC03F000
:1007100088EF03F000EF00F0000EF86E060EF76EA3
:0607200000017AEF03F076
:00000001FF
