:040000004EEF04F0CB
:10060000004D4F544F523253544F50202020202041
:1006100020004D4F544F5232434C4F434B57495398
:100620004520004D4F544F5232414E5449434C4F98
:10063000434B0000300E946E000E956E000E936ECC
:10064000010E08EC04F00F0E08EC04F0380E08EC74
:1006500004F0076808680C0E08EC04F082A833EF79
:1006600003F035EF03F081EF03F0020E07180810D6
:10067000D8A43DEF03F03FEF03F041EF03F007682C
:100680000868074A082A82B848EF03F04AEF03F0E7
:1006900043EF03F0C00E08EC04F007500810D8A494
:1006A00054EF03F056EF03F05EEF03F08180819288
:1006B000120E066E38EC04F081EF03F00704081008
:1006C000D8A465EF03F067EF03F06FEF03F08190BC
:1006D0008182230E066E38EC04F081EF03F0020EE7
:1006E00007180810D8A477EF03F079EF03F081EF33
:1006F00003F081908192010E066E38EC04F081EFD8
:1007000003F082AA86EF03F088EF03F02BEF03F0EB
:10071000020E07180810D8A490EF03F092EF03F030
:1007200094EF03F007680868074A082A82BA9BEF2B
:1007300003F09DEF03F096EF03F0C00E08EC04F019
:1007400007500810D8A4A7EF03F0A9EF03F0B1EF0A
:1007500003F081848196120E066E38EC04F02BEFC4
:1007600003F007040810D8A4B8EF03F0BAEF03F0C1
:10077000C2EF03F081948186230E066E38EC04F0FC
:100780002BEF03F0020E07180810D8A4CAEF03F0ED
:10079000CCEF03F0D4EF03F081948196010E066E46
:1007A00038EC04F02BEF03F02BEF03F000EF00F038
:1007B000016E8280829201C083FF8284000E036EEC
:1007C000000E026E024A032A03BEF0EF03F003504C
:1007D00009E1650E025CD8A0F0EF03F0F2EF03F040
:1007E000E2EF03F08294000E056E000E046E044AE0
:1007F000052A05BE05EF04F0890E045C130E0558AA
:10080000D8A005EF04F007EF04F0F7EF03F01200B3
:10081000016E8290829201C083FF8284000E036E7B
:10082000000E026E024A032A03BE20EF04F00350BA
:1008300009E1650E025CD8A020EF04F022EF04F07D
:1008400012EF04F08294000E056E000E046E044A4E
:10085000052A05BE35EF04F0890E045C130E055819
:10086000D8A035EF04F037EF04F027EF04F01200C2
:1008700041EF04F006C0F6FF0800F550D8EC03F095
:10088000062A06C0F6FF0800F5500009D8A44BEF71
:1008900004F04DEF04F03AEF04F01200000EF86E91
:0A08A000060EF76E00011AEF03F0D8
:00000001FF
