:04000000B7EF03F063
:100600000000000E946E000E956E010E936E000EAB
:10061000836E81680F0EC16E20EE15F010EE03F0B0
:10062000090EDBCFE3FFE806FCE20E0E836E1350EB
:10063000030FD96EDA6ADF50826ECAEC03F00D0E3A
:10064000836E1150030FD96EDA6ADF50826ECAECE6
:1006500003F00B0E836E0F50030FD96EDA6ADF5072
:10066000826ECAEC03F0070E836E0D50030FD96E35
:10067000DA6ADF50826ECAEC03F081A042EF03F029
:1006800044EF03F015EF03F00D4A0E2A0A0E0D1881
:100690000E10D8A44EEF03F050EF03F0ACEF03F0D0
:1006A000000E0E6E000E0D6E0F4A102A0A0E0F1865
:1006B0001010D8A45EEF03F060EF03F0ACEF03F08E
:1006C000000E106E000E0F6E114A122A0A0E11183B
:1006D0001210D8A46EEF03F070EF03F0ACEF03F04C
:1006E000000E126E000E116E134A142A0A0E131811
:1006F0001410D8A47EEF03F080EF03F082EF03F034
:10070000B5EF03F0ACEF03F00E0E836E1350030F42
:10071000D96EDA6ADF50826ECAEC03F00D0E836E7A
:100720001150030FD96EDA6ADF50826ECAEC03F003
:100730000B0E836E0F50030FD96EDA6ADF50826E94
:10074000CAEC03F0070E836E0D50030FD96EDA6A00
:10075000DF50826ECAEC03F081B0B1EF03F0B3EF6B
:1007600003F084EF03F015EF03F000EF00F0B80E94
:10077000F66E070EF76E000EF86E00EE15F010EE36
:100780000AF00900F5CFEEFFE550E150FAE1000173
:1007900001EF03F0000E026E000E016E014A022A04
:1007A000E80E015C030E0258D8A0D9EF03F0DBEF8E
:1007B00003F0CEEF03F012003F065B4F666D7D073E
:0207C0007F6F49
:00000001FF
