:04000000E5EF03F035
:100600000000000E956E95CF94FF010E72EC03F082
:100610000F0E72EC03F0290E366E000EA2EC03F002
:10062000210E366E010EA2EC03F0190E366E020E8C
:10063000A2EC03F0110E366E030EA2EC03F0090ECD
:10064000366E040EA2EC03F0010E366E050EA2EC1F
:1006500003F0800E72EC03F0000E42EC03F0010E8A
:1006600042EC03F0020E42EC03F0030E42EC03F006
:10067000040E42EC03F0050E42EC03F03EEF03F0F3
:1006800000EF00F0316E8280829231C083FF82845D
:10069000000E336E000E326E324A332A33BE5AEFEA
:1006A00003F0335009E1650E325CD8A05AEF03F035
:1006B0005CEF03F04CEF03F08294000E356E000EF9
:1006C000346E344A352A35BE6FEF03F0890E345C40
:1006D000130E3558D8A06FEF03F071EF03F061EF00
:1006E00003F01200316E8290829231C083FF8284C7
:1006F000000E336E000E326E324A332A33BE8AEF5A
:1007000003F0335009E1650E325CD8A08AEF03F0A4
:100710008CEF03F07CEF03F08294000E356E000E38
:10072000346E344A352A35BE9FEF03F0890E345CAF
:10073000130E3558D8A09FEF03F0A1EF03F091EF0F
:1007400003F01200376E080E3760A9EF03F0ABEF2D
:1007500003F0CCEF03F03750080DF350400F72EC6C
:1007600003F0000E396E000E386E36503824D96E04
:10077000DA6ADF5042EC03F0384A392A39BECAEF50
:1007800003F0395009E1080E385CD8A0CAEF03F035
:10079000CCEF03F0B5EF03F012001C04041F0505B5
:1007A0001D000302020F0A0E03001E1202020202C3
:1007B00002001D151515151517001F111117111120
:1007C00017001E121E101E121E009A0EF66E070E45
:1007D000F76E000EF86E00EE01F010EE30F009003A
:1007E000F5CFEEFFE550E150FAE1000101EF03F033
:00000001FF
