:040000004FEF03F0CB
:100600000000010E946E000E956E0168026882A0D3
:100610000CEF03F00EEF03F023EF03F0020E0118CE
:100620000210D8A416EF03F018EF03F01AEF03F04E
:1006300001680268014A022A82B021EF03F023EF29
:1006400003F01CEF03F001500210D8A42AEF03F0CE
:100650002CEF03F030EF03F0010E836E07EF03F091
:1006600001040210D8A437EF03F039EF03F03DEF97
:1006700003F0020E836E07EF03F0020E0118021062
:10068000D8A445EF03F047EF03F04BEF03F0000E63
:10069000836E07EF03F007EF03F000EF00F00001B7
:0406A00001EF03F073
:00000001FF
