:04000000D9EF04F040
:10060000003000310032003300340035003600374E
:1006100000380039004100420043004400450046D4
:1006200000000F0EC16EF00E936E000E946E000E61
:10063000956E0F0E93EC04F00C0E93EC04F00E0E7E
:10064000816E81B826EF03F028EF03F035EF03F059
:10065000030E066EC3EC04F081A831EF03F033EF14
:1006600003F02CEF03F06FEF03F081BA3AEF03F0E1
:100670003CEF03F049EF03F0050E066EC3EC04F007
:1006800081AA45EF03F047EF03F040EF03F06FEF6F
:1006900003F081BC4EEF03F050EF03F05DEF03F089
:1006A000070E066EC3EC04F081AC59EF03F05BEF6C
:1006B00003F054EF03F06FEF03F081BE62EF03F03D
:1006C00064EF03F06FEF03F0090E066EC3EC04F065
:1006D00081AE6DEF03F06FEF03F068EF03F00D0EE6
:1006E000816E81B876EF03F078EF03F085EF03F0C9
:1006F0000B0E066EC3EC04F081A881EF03F083EFCC
:1007000003F07CEF03F0BFEF03F081BA8AEF03F050
:100710008CEF03F099EF03F00D0E066EC3EC04F0BE
:1007200081AA95EF03F097EF03F090EF03F0BFEF8E
:1007300003F081BC9EEF03F0A0EF03F0ADEF03F0F8
:100740000F0E066EC3EC04F081ACA9EF03F0ABEF23
:1007500003F0A4EF03F0BFEF03F081BEB2EF03F0AC
:10076000B4EF03F0BFEF03F0110E066EC3EC04F01C
:1007700081AEBDEF03F0BFEF03F0B8EF03F00B0E57
:10078000816E81B8C6EF03F0C8EF03F0D5EF03F038
:10079000130E066EC3EC04F081A8D1EF03F0D3EF83
:1007A00003F0CCEF03F00FEF04F081BADAEF03F0BF
:1007B000DCEF03F0E9EF03F0150E066EC3EC04F076
:1007C00081AAE5EF03F0E7EF03F0E0EF03F00FEFAE
:1007D00004F081BCEEEF03F0F0EF03F0FDEF03F067
:1007E000170E066EC3EC04F081ACF9EF03F0FBEFDB
:1007F00003F0F4EF03F00FEF04F081BE02EF04F01A
:1008000004EF04F00FEF04F0190E066EC3EC04F0D1
:1008100081AE0DEF04F00FEF04F008EF04F0070EC7
:10082000816E81B816EF04F018EF04F025EF04F0A4
:100830001B0E066EC3EC04F081A821EF04F023EF39
:1008400004F01CEF04F01FEF03F081BA2AEF04F06C
:100850002CEF04F039EF04F01D0E066EC3EC04F02B
:1008600081AA35EF04F037EF04F030EF04F01FEF0A
:1008700003F081BC3EEF04F040EF04F04DEF04F0D4
:100880001F0E066EC3EC04F081AC49EF04F04BEF91
:1008900004F044EF04F01FEF03F081BE52EF04F0C8
:1008A00054EF04F01FEF03F0010E066EC3EC04F0EA
:1008B00081AE5DEF04F05FEF04F058EF04F01FEF3E
:1008C00003F000EF00F0016E8280829201C083FF8E
:1008D0008284000E036E000E026E024A032A03BEDB
:1008E0007BEF04F0035009E1650E025CD8A07BEFBA
:1008F00004F07DEF04F06DEF04F08294000E056EBD
:10090000000E046E044A052A05BE90EF04F0890E1D
:10091000045C130E0558D8A090EF04F092EF04F099
:1009200082EF04F01200016E8290829201C083FF78
:100930008284000E036E000E026E024A032A03BE7A
:10094000ABEF04F0035009E1650E025CD8A0ABEFF9
:1009500004F0ADEF04F09DEF04F08294000E056EFC
:10096000000E046E044A052A05BEC0EF04F0890E8D
:10097000045C130E0558D8A0C0EF04F0C2EF04F0D9
:10098000B2EF04F01200CCEF04F006C0F6FF08004E
:10099000F55063EC04F0062A06C0F6FF0800F55097
:1009A0000009D8A4D6EF04F0D8EF04F0C5EF04F0A6
:1009B0001200000EF86E060EF76E000111EF03F044
:00000001FF
