:04000000F2EF05F026
:100600000050617373776F726420436F7272656319
:100610007400456E7465722050617373776F7264F5
:100620000050617373776F72642057726F6E67004A
:0106300000C9
:100632000F0EC16EF00E936E000E956E95CF94FF65
:10064200380E93EC05F0010E93EC05F00F0E93ECCF
:1006520005F0800E93EC05F0010E93EC05F0120EFE
:10066200066E0AEC06F0C00E93EC05F0000E316E39
:100672003150270FD96EDA6AB8EC04F0DF6E3150D0
:10068200270FD96EDA6ADF5063EC05F081A84CEFD0
:1006920003F04EEF03F047EF03F081AA53EF03F0AC
:1006A20055EF03F047EF03F081AC5AEF03F05CEF34
:1006B20003F047EF03F081AE61EF03F063EF03F065
:1006C20047EF03F0312A030E31646AEF03F06CEF57
:1006D20003F039EF03F0270E016E2C0E026EC3EC0D
:1006E20005F001500210D8A479EF03F07BEF03F07C
:1006F20011EF04F0000E076E000E086E000E096E78
:10070200000E0A6E010E0726000E082209220A2296
:100712000ABE99EF03F00A500DE1A10E075C860EA6
:100722000858010E0958D8A099EF03F09BEF03F087
:1007320083EF03F0010E93EC05F0010E066E0AEC56
:1007420006F0000E1C6E000E1B6E080E93EC05F0F8
:10075200000E1E6E000E1D6E1D4A1E2A1EBEBBEF2F
:1007620003F0310E1D5C750E1E58D8A0BBEF03F0CE
:10077200BDEF03F0ADEF03F00E0E93EC05F0000EAB
:100782000B6E000E0C6E000E0D6E000E0E6E010E44
:100792000B26000E0C220D220E220EBEDDEF03F000
:1007A2000E500D100BE1310E0B5C750E0C58D8A0DB
:1007B200DDEF03F0DFEF03F0C8EF03F01B4A1C2A62
:1007C2001CBEEDEF03F01C5009E10A0E1B5CD8A021
:1007D200EDEF03F0EFEF03F0A6EF03F0000E0F6E64
:1007E200000E106E000E116E000E126E010E0F261C
:1007F200000E10221122122212BE0DEF04F012502E
:100802000DE1410E0F5C420E10580F0E1158D8A088
:100812000DEF04F00FEF04F0F7EF03F02DEF03F00C
:10082200000E206E000E1F6E080E93EC05F0000EF7
:10083200136E000E146E000E156E000E166E010E73
:100842001326000E14221522162216BE36EF04F0CD
:1008520016500DE1A10E135C860E1458010E1558A8
:10086200D8A036EF04F038EF04F020EF04F0010EC8
:1008720093EC05F0210E066E0AEC06F0000E226ED5
:10088200000E216E080E93EC05F0000E246E000E91
:10089200236E234A242A24BE58EF04F0310E235C2F
:1008A200750E2458D8A058EF04F05AEF04F04AEF1E
:1008B20004F00E0E93EC05F0000E266E000E256E6F
:1008C200254A262A26BE6FEF04F0310E255C750EEE
:1008D2002658D8A06FEF04F071EF04F061EF04F036
:1008E200214A222A22BE7FEF04F0225009E10A0E99
:1008F200215CD8A07FEF04F081EF04F043EF04F015
:10090200000E176E000E186E000E196E000E1A6E93
:10091200010E1726000E182219221A221ABE9FEF64
:1009220004F01A500DE1410E175C420E18580F0EDA
:100932001958D8A09FEF04F0A1EF04F089EF04F05A
:100942000E0E93EC05F01F4A202A20BEB2EF04F0EF
:10095200205009E10A0E1F5CD8A0B2EF04F0B4EFF8
:1009620004F015EF04F02DEF03F000EF00F00E0E8F
:10097200816E81B8BFEF04F0C1EF04F0C4EF04F060
:10098200300E62EF05F081BAC9EF04F0CBEF04F04C
:10099200CEEF04F0310E62EF05F081BCD3EF04F02C
:1009A200D5EF04F0D8EF04F0320E62EF05F081BE0D
:1009B200DDEF04F0DFEF04F0E2EF04F0330E62EF5C
:1009C20005F00D0E816E81B8E9EF04F0EBEF04F053
:1009D200EEEF04F0340E62EF05F081BAF3EF04F0AB
:1009E200F5EF04F0F8EF04F0350E62EF05F081BC8C
:1009F200FDEF04F0FFEF04F002EF05F0360E62EFB8
:100A020005F081BE07EF05F009EF05F00CEF05F0E8
:100A1200370E62EF05F00B0E816E81B813EF05F011
:100A220015EF05F018EF05F0380E62EF05F081BA08
:100A32001DEF05F01FEF05F022EF05F0390E62EF12
:100A420005F081BC27EF05F029EF05F02CEF05F04A
:100A5200410E62EF05F081BE31EF05F033EF05F094
:100A620036EF05F0420E62EF05F0070E816E81B897
:100A72003DEF05F03FEF05F042EF05F0430E62EF68
:100A820005F081BA47EF05F049EF05F04CEF05F0AC
:100A9200440E62EF05F081BC51EF05F053EF05F013
:100AA20056EF05F0450E62EF05F081BE5BEF05F0F3
:100AB2005DEF05F060EF05F0460E62EF05F0B8EF6E
:100AC20004F01200016E8280829201C083FF828450
:100AD200000E036E000E026E024A032A03BE7BEF73
:100AE20005F0035009E1650E025CD8A07BEF05F02A
:100AF2007DEF05F06DEF05F08294000E056E000E9D
:100B0200046E044A052A05BE90EF05F0110E045C3E
:100B1200270E0558D8A090EF05F092EF05F082EF6E
:100B220005F01200016E8292829001C083FF8284DE
:100B3200000E036E000E026E024A032A03BEABEFE2
:100B420005F0035009E1650E025CD8A0ABEF05F099
:100B5200ADEF05F09DEF05F08294000E056E000EDC
:100B6200046E044A052A05BEC0EF05F0110E045CAE
:100B7200270E0558D8A0C0EF05F0C2EF05F0B2EF7E
:100B820005F01200C7EF05F0012A022A0250D96EC1
:100B9200DA6A0150E16EE26ADE50E618D8A4D4EFB8
:100BA20005F0D6EF05F0E1EF05F00150D96EDA6AF3
:100BB200DF50D8A4DFEF05F0E1EF05F0C5EF05F057
:100BC2000150D96EDA6ADF50036E0250D96EDA6ACA
:100BD200DF50046E0450035C016E026AD8A0020664
:100BE2001200400EF66E0C0EF76E000EF86E00EE5E
:100BF20027F010EE0AF00900F5CFEEFFE550E150C4
:100C0200FAE1316A000EF86E060EF76E000119EF76
:100C120003F013EF06F006C0F6FF0800F55063EC90
:100C220005F0062A06C0F6FF0800F5500009D8A410
:100C32001DEF06F01FEF06F00CEF06F01200303049
:080C4200303000313233340080
:00000001FF
