:04000000C5EF05F053
:100600000000000E946E000E956E010E826E000EBC
:10061000026E000E016E014A022AD80E015CD60E4F
:100620000258D8A016EF03F018EF03F00BEF03F019
:10063000000E826E000E046E000E036E034A042A42
:10064000D80E035CD60E0458D8A029EF03F02BEF88
:1006500003F01EEF03F0030E826E000E066E000E16
:10066000056E054A062AD80E055CD60E0658D8A097
:100670003CEF03F03EEF03F031EF03F0000E826E2B
:10068000000E086E000E076E074A082AD80E075C97
:10069000D60E0858D8A04FEF03F051EF03F044EF07
:1006A00003F0070E826E000E0A6E000E096E094AF4
:1006B0000A2AD80E095CD60E0A58D8A062EF03F0B9
:1006C00064EF03F057EF03F0000E826E000E0C6E25
:1006D000000E0B6E0B4A0C2AD80E0B5CD60E0C5873
:1006E000D8A075EF03F077EF03F06AEF03F00F0E79
:1006F000826E000E0E6E000E0D6E0D4A0E2AD80E82
:100700000D5CD60E0E58D8A088EF03F08AEF03F0E8
:100710007DEF03F0000E826E000E106E000E0F6E65
:100720000F4A102AD80E0F5CD60E1058D8A09BEF97
:1007300003F09DEF03F090EF03F01F0E826E000EAA
:10074000126E000E116ED80E115CD60E1258D8A083
:10075000ACEF03F0AEEF03F0B0EF03F0B4EF03F053
:10076000114A122AA3EF03F0000E826E000E146EDF
:10077000000E136ED80E135CD60E1458D8A0C3EF1B
:1007800003F0C5EF03F0C7EF03F0CBEF03F0134A1C
:10079000142ABAEF03F03F0E826E000E166E000EA2
:1007A000156ED80E155CD60E1658D8A0DAEF03F0E9
:1007B000DCEF03F0DEEF03F0E2EF03F0154A162A58
:1007C000D1EF03F0000E826E000E186E000E176E51
:1007D000D80E175CD60E1858D8A0F1EF03F0F3EF3F
:1007E00003F0F5EF03F0F9EF03F0174A182AE8EFEA
:1007F00003F07F0E826E000E1A6E000E196ED80E78
:10080000195CD60E1A58D8A008EF04F00AEF04F0CD
:100810000CEF04F010EF04F0194A1A2AFFEF03F06E
:10082000000E826E000E1C6E000E1B6ED80E1B5C3E
:10083000D60E1C58D8A01FEF04F021EF04F023EFD0
:1008400004F027EF04F01B4A1C2A16EF04F082681C
:10085000000E1E6E000E1D6ED80E1D5CD60E1E58AC
:10086000D8A035EF04F037EF04F039EF04F03DEF96
:1008700004F01D4A1E2A2CEF04F0000E826E000EBA
:10088000206E000E1F6ED80E1F5CD60E2058D8A00A
:100890004CEF04F04EEF04F050EF04F054EF04F08E
:1008A0001F4A202A43EF04F0010E836E000E226ED1
:1008B000000E216ED80E215CD60E2258D8A063EF10
:1008C00004F065EF04F067EF04F06BEF04F0214AE9
:1008D000222A5AEF04F0000E836E000E246E000EE2
:1008E000236ED80E235CD60E2458D8A07AEF04F0DD
:1008F0007CEF04F07EEF04F082EF04F0234A242A18
:1009000071EF04F0030E836E000E266E000E256E4E
:10091000D80E255CD60E2658D8A091EF04F093EFA0
:1009200004F095EF04F099EF04F0254A262A88EFA9
:1009300004F0000E836E000E286E000E276ED80E97
:10094000275CD60E2858D8A0A8EF04F0AAEF04F030
:10095000ACEF04F0B0EF04F0274A282A9FEF04F030
:10096000070E836E000E2A6E000E296ED80E295CCB
:10097000D60E2A58D8A0BFEF04F0C1EF04F0C3EFA1
:1009800004F0C7EF04F0294A2A2AB6EF04F0000E5B
:10099000836E000E2C6E000E2B6ED80E2B5CD60EC6
:1009A0002C58D8A0D6EF04F0D8EF04F0DAEF04F01A
:1009B000DEEF04F02B4A2C2ACDEF04F00F0E836EED
:1009C000000E2E6E000E2D6ED80E2D5CD60E2E58FB
:1009D000D8A0EDEF04F0EFEF04F0F1EF04F0F5EF45
:1009E00004F02D4A2E2AE4EF04F0000E836E000E70
:1009F000306E000E2F6ED80E2F5CD60E3058D8A059
:100A000004EF05F006EF05F008EF05F00CEF05F038
:100A10002F4A302AFBEF04F01F0E836E000E326E59
:100A2000000E316ED80E315CD60E3258D8A01BEFB6
:100A300005F01DEF05F01FEF05F023EF05F0314A3B
:100A4000322A12EF05F0000E836E000E346E000E97
:100A5000336ED80E335CD60E3458D8A032EF05F082
:100A600034EF05F036EF05F03AEF05F0334A342A5B
:100A700029EF05F03F0E836E000E366E000E356EC8
:100A8000D80E355CD60E3658D8A049EF05F04BEF9E
:100A900005F04DEF05F051EF05F0354A362A40EFED
:100AA00005F0000E836E000E386E000E376ED80E05
:100AB000375CD60E3858D8A060EF05F062EF05F02D
:100AC00064EF05F068EF05F0374A382A57EF05F074
:100AD0007F0E836E000E3A6E000E396ED80E395CB2
:100AE000D60E3A58D8A077EF05F079EF05F07BEFF6
:100AF00005F07FEF05F0394A3A2A6EEF05F0000E57
:100B0000836E000E3C6E000E3B6ED80E3B5CD60E24
:100B10003C58D8A08EEF05F090EF05F092EF05F06D
:100B200096EF05F03B4A3C2A85EF05F08368000EFE
:100B30003E6E000E3D6ED80E3D5CD60E3E58D8A0DF
:100B4000A4EF05F0A6EF05F0A8EF05F0ACEF05F077
:100B50003D4A3E2A9BEF05F0000E836E000E406E6C
:100B6000000E3F6ED80E3F5CD60E4058D8A0BBEFAB
:100B700005F0BDEF05F0BFEF05F005EF03F03F4ACC
:100B8000402AB2EF05F000EF00F0000101EF03F0A2
:00000001FF
