:04000000CDEF03F04D
:100600000048454C4C4F574F524C44414E444D4589
:100610000000000E946E000E956E0F0E87EC03F036
:100620000C0E87EC03F0930E87EC03F0010E066EC0
:10063000B7EC03F0000E0C6E000E0B6E1C0E87EC78
:1006400003F0000E076E000E086E000E096E000E1D
:100650000A6E010E0726000E082209220A220ABE8F
:100660003EEF03F00A5009100BE1310E075C750EE6
:100670000858D8A03EEF03F040EF03F029EF03F055
:100680000B4A0C2A0CBE4EEF03F00C5009E11F0E72
:100690000B5CD8A04EEF03F050EF03F01EEF03F019
:1006A000020E87EC03F01AEF03F000EF00F0016E8A
:1006B0008280829201C083FF8284000E036E000E4E
:1006C000026E024A032A03BE6FEF03F0035009E1F2
:1006D000650E025CD8A06FEF03F071EF03F061EFDD
:1006E00003F08294000E056E000E046E044A052A83
:1006F00005BE84EF03F0890E045C130E0558D8A0E4
:1007000084EF03F086EF03F076EF03F01200016E42
:100710008290829201C083FF8284000E036E000EDD
:10072000026E024A032A03BE9FEF03F0035009E161
:10073000650E025CD8A09FEF03F0A1EF03F091EFEC
:1007400003F08294000E056E000E046E044A052A22
:1007500005BEB4EF03F0890E045C130E0558D8A053
:10076000B4EF03F0B6EF03F0A6EF03F01200C0EF12
:1007700003F006C0F6FF0800F55057EC03F0062A18
:1007800006C0F6FF0800F5500009D8A4CAEF03F030
:10079000CCEF03F0B9EF03F01200000EF86E060E76
:0807A000F76E000109EF03F000
:00000001FF
