:04000000CBEF03F04F
:100600000000000E946E000E956E000E0E6E800EB1
:100610000D6E0DC082FF000E0A6E000E096E094AB3
:100620000A2AD90E095CD60E0A58D8A01AEF03F090
:100630001CEF03F00FEF03F00DC001F00EC002F04D
:10064000000E046E020E036E69EC03F001C00DF0A3
:1006500002C00EF00EBE37EF03F00E5006E10D049F
:10066000D8B035EF03F037EF03F009EF03F0000ED9
:10067000826E000E106E010E0F6E0FC083FF000E13
:100680000C6E000E0B6E0B4A0C2AD90E0B5CD60EAC
:100690000C58D8A04EEF03F050EF03F043EF03F0F7
:1006A000D8900F340F6E1034106E10BE61EF03F04F
:1006B000105009E1810E0F5CD8A061EF03F063EFE9
:1006C00003F03DEF03F0000E836E05EF03F000EF43
:1006D00000F0000E066E04BE72EF03F070EF03F040
:1006E00078EF03F0036C041ED8B0042A010E066EE6
:1006F00002BE7FEF03F07DEF03F085EF03F0016CA6
:10070000021ED8B0022A010E061A000E086E000E54
:10071000076E03500410D8B490EF03F092EF03F08B
:10072000BAEF03F0010E056E9AEF03F0D89003368E
:100730000436052A04AE9FEF03F0A1EF03F096EF15
:1007400003F0D890073608360350015C0450025875
:10075000D8A0ADEF03F0AFEF03F0B4EF03F0035018
:10076000015E0450025A0780D89004320332052EED
:10077000A1EF03F00650D8B4C0EF03F0C2EF03F0CE
:10078000C6EF03F0076C081ED8B0082A07C001F0B6
:0C07900008C002F01200000101EF03F0AD
:00000001FF
