:0400000009EF05F00F
:100600000050617373776F726420436F7272656319
:100610007400456E7465722050617373776F7264F5
:100620000050617373776F72642057726F6E67004A
:0106300000C9
:100632000F0EC16EF00E936E000E956E95CF94FF65
:10064200380EAAEC04F0010EAAEC04F00F0EAAEC8C
:1006520004F0800EAAEC04F0010EAAEC04F0120ED3
:10066200066E21EC05F0C00EAAEC04F0000E216E1D
:100672002150170FD96EDA6A0FEC04F0DF6E2150A9
:10068200170FD96EDA6ADF507AEC04F081A84CEFCA
:1006920003F04EEF03F047EF03F081AA53EF03F0AC
:1006A20055EF03F047EF03F081AC5AEF03F05CEF34
:1006B20003F047EF03F081AE61EF03F063EF03F065
:1006C20047EF03F0212A030E21646AEF03F06CEF77
:1006D20003F039EF03F0170E016E1C0E026EDAEC16
:1006E20004F001500210D8A479EF03F07BEF03F07D
:1006F200C4EF03F0000E076E000E086E000E096EC6
:10070200000E0A6E010E0726000E082209220A2296
:100712000ABE99EF03F00A500DE1A10E075C860EA6
:100722000858010E0958D8A099EF03F09BEF03F087
:1007320083EF03F0010EAAEC04F0010E066E21EC29
:1007420005F0000E0B6E000E0C6E000E0D6E000E0C
:100752000E6E010E0B26000E0C220D220E220EBE74
:10076200C0EF03F00E500DE1410E0B5C420E0C582F
:100772000F0E0D58D8A0C0EF03F0C2EF03F0AAEF9E
:1007820003F02DEF03F0000E0F6E000E106E000E40
:10079200116E000E126E010E0F26000E1022112293
:1007A200122212BEE2EF03F012500DE1A10E0F5C15
:1007B200860E1058010E1158D8A0E2EF03F0E4EFB4
:1007C20003F0CCEF03F0010EAAEC04F0210E066E4A
:1007D20021EC05F0000E136E000E146E000E156E65
:1007E200000E166E010E1326000E1422152216227A
:1007F20016BE09EF04F016500DE1410E135C420ED5
:1008020014580F0E1558D8A009EF04F00BEF04F09E
:10081200F3EF03F02DEF03F000EF00F00E0E816E08
:1008220081B816EF04F018EF04F01BEF04F0370E56
:1008320079EF04F081BA20EF04F022EF04F025EF03
:1008420004F0380E79EF04F081BC2AEF04F02CEFAB
:1008520004F02FEF04F0390E79EF04F00D0E816EE3
:1008620081B836EF04F038EF04F03BEF04F0340EB9
:1008720079EF04F081BA40EF04F042EF04F045EF63
:1008820004F0350E79EF04F081BC4AEF04F04CEF2E
:1008920004F04FEF04F0360E79EF04F00B0E816E88
:1008A20081B856EF04F058EF04F05BEF04F0310E1C
:1008B20079EF04F081BA60EF04F062EF04F065EFC3
:1008C20004F0320E79EF04F081BC6AEF04F06CEFB1
:1008D20004F06FEF04F0330E79EF04F0070E816E2F
:1008E20081BA76EF04F078EF04F00FEF04F0300EE7
:1008F2001200016E8280829201C083FF8284000E08
:10090200036E000E026E024A032A03BE92EF04F047
:10091200035009E1650E025CD8A092EF04F094EF57
:1009220004F084EF04F08294000E056E000E046E53
:10093200044A052A05BEA7EF04F0110E045C270E37
:100942000558D8A0A7EF04F0A9EF04F099EF04F03E
:100952001200016E8292829001C083FF8284000E97
:10096200036E000E026E024A032A03BEC2EF04F0B7
:10097200035009E1650E025CD8A0C2EF04F0C4EF97
:1009820004F0B4EF04F08294000E056E000E046EC3
:10099200044A052A05BED7EF04F0110E045C270EA7
:1009A2000558D8A0D7EF04F0D9EF04F0C9EF04F04E
:1009B2001200DEEF04F0012A022A0250D96EDA6A2E
:1009C2000150E16EE26ADE50E618D8A4EBEF04F0C3
:1009D200EDEF04F0F8EF04F00150D96EDA6ADF505F
:1009E200D8A4F6EF04F0F8EF04F0DCEF04F00150C5
:1009F200D96EDA6ADF50036E0250D96EDA6ADF50BE
:100A0200046E0450035C016E026AD8A00206120052
:100A12006E0EF66E0A0EF76E000EF86E00EE17F00E
:100A220010EE0AF00900F5CFEEFFE550E150FAE1D1
:100A3200216A000EF86E060EF76E000119EF03F040
:100A42002AEF05F006C0F6FF0800F5507AEC04F034
:100A5200062A06C0F6FF0800F5500009D8A434EFB4
:100A620005F036EF05F023EF05F01200303030309C
:060A7200003132333400B4
:00000001FF
