:040000008EEF03F08C
:100600000000016E8280829201C083FF8284000E0E
:10061000036E000E026E024A032A03BE19EF03F0B6
:10062000035009E1650E025CD8A019EF03F01BEF3F
:1006300003F00BEF03F08294000E056E000E046EC3
:10064000044A052A05BE2EEF03F0890E045C130E42
:100650000558D8A02EEF03F030EF03F020EF03F0A1
:100660001200016E8290829201C083FF8284000E8C
:10067000036E000E026E024A032A03BE49EF03F026
:10068000035009E1650E025CD8A049EF03F04BEF7F
:1006900003F03BEF03F08294000E056E000E046E33
:1006A000044A052A05BE5EEF03F0890E045C130EB2
:1006B0000558D8A05EEF03F060EF03F050EF03F0B1
:1006C0001200800E946E000E956E240EAC6E900E8D
:1006D000AB6E810EAF6E000EB86E010E31EC03F002
:1006E0000F0E31EC03F0380E31EC03F0060E31EC56
:1006F00003F0800E31EC03F082EC03F07CEF03F0AA
:1007000000EF00F09EAA87EF03F089EF03F082EF7D
:1007100003F09E9AAE5001EC03F01200000161EF6D
:0207200003F0E4
:00000001FF
